{
  "_format": "hh-sol-artifact-1",
  "contractName": "PriceOracle",
  "sourceName": "contracts/PriceOracle.sol",
  "abi": [
    {
      "inputs": [],
      "stateMutability": "nonpayable",
      "type": "constructor"
    },
    {
      "anonymous": false,
      "inputs": [
        {
          "indexed": false,
          "internalType": "uint256",
          "name": "newPrice",
          "type": "uint256"
        },
        {
          "indexed": false,
          "internalType": "address",
          "name": "updatedBy",
          "type": "address"
        }
      ],
      "name": "PriceUpdated",
      "type": "event"
    },
    {
      "inputs": [],
      "name": "getPrice",
      "outputs": [
        {
          "internalType": "uint256",
          "name": "",
          "type": "uint256"
        }
      ],
      "stateMutability": "view",
      "type": "function"
    },
    {
      "inputs": [],
      "name": "owner",
      "outputs": [
        {
          "internalType": "address",
          "name": "",
          "type": "address"
        }
      ],
      "stateMutability": "view",
      "type": "function"
    },
    {
      "inputs": [
        {
          "internalType": "address",
          "name": "newOwner",
          "type": "address"
        }
      ],
      "name": "transferOwnership",
      "outputs": [],
      "stateMutability": "nonpayable",
      "type": "function"
    },
    {
      "inputs": [
        {
          "internalType": "uint256",
          "name": "_price",
          "type": "uint256"
        }
      ],
      "name": "updatePrice",
      "outputs": [],
      "stateMutability": "nonpayable",
      "type": "function"
    }
  ],
  "bytecode": "0x608060405234801561001057600080fd5b50600180546001600160a01b0319163317905561028f806100326000396000f3fe608060405234801561001057600080fd5b506004361061004c5760003560e01c80638d6cc56d146100515780638da5cb5b1461006657806398d5fdca14610096578063f2fde38b146100a7575b600080fd5b61006461005f3660046101cf565b6100ba565b005b600154610079906001600160a01b031681565b6040516001600160a01b0390911681526020015b60405180910390f35b60005460405190815260200161008d565b6100646100b53660046101e8565b61012d565b6001546001600160a01b031633146100ed5760405162461bcd60e51b81526004016100e490610218565b60405180910390fd5b6000819055604080518281523360208201527fd8418c2edea4801b73e29837a4f03ac739cddfb84a3e033356997ab034369a61910160405180910390a150565b6001546001600160a01b031633146101575760405162461bcd60e51b81526004016100e490610218565b6001600160a01b0381166101ad5760405162461bcd60e51b815260206004820181905260248201527f4e6577206f776e65722063616e6e6f74206265207a65726f206164647265737360448201526064016100e4565b600180546001600160a01b0319166001600160a01b0392909216919091179055565b6000602082840312156101e157600080fd5b5035919050565b6000602082840312156101fa57600080fd5b81356001600160a01b038116811461021157600080fd5b9392505050565b60208082526021908201527f4f6e6c79206f776e65722063616e2063616c6c20746869732066756e6374696f6040820152603760f91b60608201526080019056fea26469706673582212206e0add5ac40448c1dd9bb3e5504f5878c32c0204e0ad51086f320629ee8b716a64736f6c63430008130033",
  "linkReferences": {},
  "deployedLinkReferences": {}
}